:020000020000FC
:080000000C940C010C94950115
:040028000C949D0196
:040030000C94C0016B
:100060000C940C010C0302010D0605040E0908078F
:100070000F0A000BC0F9A4B0999282F8809088838F
:10008000C6A1868EC698C598C798BE9ABD9ABF9AD3
:100090002CD00895C698C59AC79A05D001B1C798C3
:1000A0000078D1F7089506E00A95F1F70895F894DD
:1000B000F1DFC69803C0F894EDDFC69AC598C79AD9
:1000C00019D013B9F0DFC79810D078940895F89438
:1000D000E1DFC69803C0F894DDDFC69AC59AC79AD7
:1000E000E2DF11B1C7987894089500E002B90FEFEC
:1000F00003B908950FEF02B90895003C80F0003C69
:1001000079F0013C79F0023C79F0033C79F0043C51
:1001100079F0053C79F0083A79F00C949E00089546
:1001200001E4089500EA089502E4089501EA0895BB
:1001300004E4089505E4089502EA0895063C71F088
:10014000073C71F0083C71F0093C71F00A3C71F019
:100150000B3C71F00C3C71F00C94BE0003EA089566
:1001600004EA089505EA089506EA08950BE408955F
:1001700007EA08950DE4089508E408950D3CE1F3BD
:100180000E3C61F00F3C61F0003D61F0013D61F01B
:10019000023D61F0033D61F00C94DA000FE4089534
:1001A00008EA089500E5089503E4089504E5089534
:1001B00009EA0895043D71F0053D71F0063D71F0C6
:1001C000073D71F0083D71F0093D61F00A3D61F0B5
:1001D0000C94F6000AEA089508E5089505E70895E5
:1001E0000BEA08950CEA08950DEA08950B3D51F0CD
:1001F0000C3D51F00D3D51F00E3D51F00F3D51F0D1
:10020000003208950EEA089502E608950FEA08956F
:1002100000EB089501EB08950FEF0DBF00E10EBF55
:1002200021E130E044E064E070E050E000EF04BB26
:100230000FEF0ABB0FEF02B908EF01BB00E507BFE4
:100240000FE00BBD00EA0ABD01E00EBD00E0009327
:100250000001009301010093020100930301009348
:100260000401009305010093060100930701009328
:1002700008010093090104E600930A0104E70093D2
:100280000B0101E000BB0FEF02B90FEF07BB18E352
:100290000EDF11E00CDF16E00ADF1CE008DF12E0E1
:1002A00006DF789400E000300C9456010C9435027F
:1002B00060FD0C94610161FD0C94A20171FD0E942E
:1002C0007E0161FD0C94A20170FD0C94C90162FDD8
:1002D0000E946C010C9456016B7F11E0E8DE06E889
:1002E000E02F04E0F02FC895002D003031F005DF3D
:1002F000102FE1DE31960C94730108957D7F40301C
:1003000089F04A95022F007F05BB000003B30F70F0
:10031000003011F00C9495010FEF03B9220F08F48F
:100320002395089544E00C948101616033B301EB9F
:1003300004BD05E005BD0C948C0100E005BD6E7F99
:100340006260189500910A01FF27E02F042F043006
:1003500009F40A95003021F034960A950C94AA010C
:10036000032F069510F03196FCCFC895502C51E024
:100370006D7F00E0009309017D7F00000C94560121
:1003800000E0F8940DBD0CBD7894716000E004B9F4
:100390001895009109010F5F009309010A3021F4BB
:1003A000726000E0009309017E7F009100010F5F01
:1003B000009300010A3F69F500E0009300010091FD
:1003C00001010F5F00930101043019F5646000E042
:1003D00000930101009102010F5F009302010A30B6
:1003E000C1F400E000930201009103010F5F00934C
:1003F0000301063071F400E0009303010091040151
:100400000F5F009304010A3021F400E0009304011F
:1004100002C00C946701009105010F5F0093050174
:10042000063009F500E000930501009108010F5F17
:10043000009308010831B9F400E00093080100912D
:1004400006010F5F009306010A3069F400E0009393
:100450000601009107010F5F00930701063019F4B0
:1004600000E0009307010C9467010C94580109B354
:10047000000F00F4000F00F400E0CFD0C8C2C5D2D6
:100480002C20CCC8D000CDC5D1D2C5D0D3CA203104
:06049000204C4F56450010
:00000001FF
